8=FIX.4.2|9=138|35=D|34=2|49=User1|50=U1fix|52=20090206-21:13:59.324|56=FixServer|11=1233954839232|15=EUR|21=1|38=10000|40=1|44=1.25|54=1|55=EUR/USD|59=0|10=222|

8=FIX.4.2|9=137|35=D|34=2|49=User2|50=U1fix|52=20090206-21:13:59.324|56=FixServer|11=1233954839232|15=EUR|21=1|38=2000|40=1|44=1.25|54=2|55=EUR/USD|59=0|10=176|
